:020000040800F2
:10000000600600200D020008490200084B020008AB
:100010004D0200084F0200085102000800000000D5
:100020000000000000000000000000005302000873
:10003000550200080000000057020008590200089D
:100040005B0200085B0200085B0200085B0200081C
:100050005B0200085B0200085B0200085B0200080C
:100060005B0200085B0200085B0200085B020008FC
:100070005B0200085B0200085B0200085B020008EC
:100080005B0200085B0200085B0200085B020008DC
:100090005B0200085B0200085B0200085B020008CC
:1000A0005B0200085B0200085B0200085B020008BC
:1000B0005B0200085B0200085B0200085B020008AC
:1000C0005B0200085B0200085B0200085B0200089C
:1000D0005B0200085B0200085B0200085B0200088C
:1000E0005B0200085B0200085B0200085B0200087C
:1000F0005B0200085B0200085B0200085B0200086C
:100100005B0200085B0200085B0200085B0200085B
:100110005B0200085B0200085B0200085B0200084B
:100120005B0200085B0200085B0200085B0200083B
:100130005B0200085B0200085B0200085B0200082B
:100140005B0200085B0200085B0200085B0200081B
:100150005B0200085B0200085B0200085B0200080B
:100160005B0200085B0200085B0200085B020008FB
:100170005B0200085B0200085B0200080000000050
:100180005B0200085B02000800F002F800F02EF8A5
:100190000AA090E8000C82448344AAF10107DA45E2
:1001A00001D100F023F8AFF2090EBAE80F0013F006
:1001B000010F18BFFB1A43F0010318475C0300004E
:1001C0006C0300000023002400250026103A28BFFD
:1001D00078C1FBD8520728BF30C148BF0B607047B9
:1001E0001FB500F093F91FBD10B510BD00F053F816
:1001F0001146FFF7F5FF00F089F800F071F803B43D
:10020000FFF7F2FF03BC00F079F800001648174929
:10021000174B99423CBF50F8042B41F8042BF8D3FC
:1002200014494FF000028B4238BF43F8042BFAD335
:10023000DFF84400016841F470010160BFF34F8FA3
:10024000BFF36F8F0D480047FEE7FEE7FEE7FEE7CE
:10025000FEE7FEE7FEE7FEE7FEE7FEE7084809499E
:10026000094A0A4B704700002805000800000020DA
:10027000000000206006002088ED00E089010008F1
:100280006000002060060020600200206002002064
:10029000704770477047754600F02CF8AE46050071
:1002A0006946534620F00700854618B020B5FFF791
:1002B000D5FFBDE820404FF000064FF000074FF09B
:1002C00000084FF0000B21F00701AC46ACE8C00974
:1002D000ACE8C009ACE8C009ACE8C0098D4670477D
:1002E00010B50446AFF300802046BDE81040FFF78C
:1002F00086BF000000487047000000200149182018
:10030000ABBEFEE726000200704700007C48006894
:1003100040F480707A49086000BF7948006800F4B2
:1003200080600028F9D07648806820F00300744986
:1003300088600846806840F00100886000BF70480F
:10034000806800F00C000028F9D06D48C06C40F0C7
:1003500001006B49C8640846C06C40F00200C864E4
:100360000846C06C40F01000C8646648006820F081
:100370003000644908600846006840F010000860DA
:100380006148006820F440305F4908600846006812
:1003900040F4803008600846406820F4807048606F
:1003A0005848001D006820F004005649091D0860E7
:1003B0005548C06820F440305349C86051480C305B
:1003C000006820F030004F490C3108604FF0904039
:1003D000006840F6FF4188434FF0904108600846AE
:1003E000C06840F6FF4188434FF09041C86008461E
:1003F000C06840F6AA0108434FF09041C8607DE014
:100400004FF09040006900F00100A8B13E484069FB
:1004100080F480703C4948613A481430006880F0AC
:10042000040038491431086000BF4FF09040006963
:1004300000F001000028F8D14FF09040006900F072
:10044000020078B12F481430006880F004002D4974
:100450001431086000BF4FF09040006900F00200C6
:100460000028F8D14FF09040006900F0040068B116
:100470002548406980F480702349486100BF4FF0EF
:100480009040006900F004000028F8D14FF090403F
:10049000006900F00800A8B11B48406940F4807072
:1004A0001949486117481430006840F004001549A4
:1004B0001431086000BF4FF09040006900F0080060
:1004C0000028F8D14FF09040006900F02000A8B15A
:1004D0000D48406920F480700B4948610948143088
:1004E000006820F0040007491431086000BF4FF095
:1004F0009040006900F020000028F8D180E700005B
:100500000010024000040048001000484FF0407006
:10051000E1EE100A704700002805000800000020E6
:0805200060060000C4010008A0
:040000050800018965
:00000001FF
