:020000040800F2
:10000000980600202502000861020008630200082B
:10001000650200086702000869020008000000008D
:100020000000000000000000000000006B0200085B
:100030006D020008000000006F0200087102000855
:1000400073020008730200087302000873020008BC
:1000500073020008730200087302000873020008AC
:10006000730200087302000873020008730200089C
:10007000730200087302000873020008730200088C
:10008000730200087302000873020008730200087C
:10009000730200087302000873020008730200086C
:1000A000730200087302000873020008730200085C
:1000B000730200087302000873020008730200084C
:1000C000730200087302000873020008730200083C
:1000D000730200087302000873020008730200082C
:1000E000730200087302000873020008730200081C
:1000F000730200087302000873020008730200080C
:1001000073020008730200087302000873020008FB
:1001100073020008730200087302000873020008EB
:1001200073020008730200087302000873020008DB
:1001300073020008730200087302000873020008CB
:1001400073020008730200087302000873020008BB
:1001500073020008730200087302000873020008AB
:10016000730200087302000873020008730200089B
:100170007302000873020008730200080000000008
:10018000730200087302000800F002F800F03BF868
:100190000AA090E8000C82448344AAF10107DA45E2
:1001A00001D100F030F8AFF2090EBAE80F0013F0F9
:1001B000010F18BFFB1A43F0010318471823000072
:1001C000282300000023002400250026103A28BF21
:1001D00078C1FBD8520728BF30C148BF0B607047B9
:1001E000662902F02A81002070471FB502F020F92D
:1001F00000F0D6FA04000020002101F0FDFBE060D1
:100200001FBD10B510BD00F0C7FB1146FFF7EDFF95
:1002100001F0CEFA00F0E5FB03B4FFF7F2FF03BCF8
:1002200000F028FC16481749174B99423CBF50F87C
:10023000042B41F8042BF8D314494FF000028B42F1
:1002400038BF43F8042BFAD3DFF84400016841F4C7
:1002500070010160BFF34F8FBFF36F8F0D480047F0
:10026000FEE7FEE7FEE7FEE7FEE7FEE7FEE7FEE766
:10027000FEE7FEE708480949094A0A4B70470000B3
:100280000025000800000020000000209806002043
:1002900088ED00E089010008980000209806002001
:1002A00098020020980200200FB41CB5084B06AA43
:1002B0007B4469460090059800F059FA04460020F6
:1002C000694600F067FA20461CBC5DF814FB00008C
:1002D000E10400002DE9F0410E46044600202062B2
:1002E0002046E168884730B3252805D0D4E90121AC
:1002F0009047206A401CF2E7E168204600278847C3
:10030000050018D0A5F14100192802D820354FF476
:1003100000673246294620462760FFF761FF40B15B
:10032000012804D0F61D26F007060836D8E7361D4A
:10033000D6E72846DAE7206ABDE8F08170477047C3
:10034000704770472DE9FF4F0C461E464FF0FF37B0
:100350008BB0D2E90001DDF860800A908A46C1F3D3
:100360000A5505B93D46002108464FF00000BAF194
:10037000000F00F4400005DA00EB80004FF440016C
:1003800001EA50004FEA9059B9F1010F00DDB9467A
:100390000A9850EA4A000ED044F61050A5F2FF35F4
:1003A00045432F14B8F1000F1ED07542291E1EDDE3
:1003B000C9F100021CE0B8F1010F4FF0000001D0BC
:1003C000302103E0F24305E02154401CB042FBDB46
:1003D00030460022002121540B99C1F80880C1E960
:1003E00000200FB000F0BAB9BD1B6D1CDEE74A4615
:1003F00000DA694206A800F05DFA06AB93E8070050
:1004000003AB83E8070050460A9900F03AFB8DE8F9
:100410000700A0F500501F3800900398002D09DD5B
:1004200042F21F014A46084403A90390684600F0BF
:1004300099FD08E0A0F500504A461F3803A9039033
:10044000684600F0A3FD8DE807000004000C03D00F
:100450004FF0FF30410800E01046B8F1000F03D024
:100460000022009215461EE0751E05D400F09CF98E
:10047000303262556D1EF9D5B3460122084302D0D1
:1004800000227F1C04E02078302801D100227F1E4A
:10049000002A099786D01DE0112D07DA00F084F9B3
:1004A000303262556D1C50EA0102F5D1084302D08A
:1004B0000098C8B10EE00021681E05E0235C625C74
:1004C00063542254401E491C8142F7DBAB46A81BF3
:1004D000401E0990002004F80B000B98099AC0F800
:1004E0000880C0E9002B7CE711264FF0000859E78F
:1004F0002DE9F04F88460446D21D22F0070191B045
:10050000D1E90001CDE90A0101F07EF802460B981D
:10051000C00F01D02D2007E02068810701D52B20D6
:1005200002E0202101EAC000032A099001D0072A35
:1005300005DB03464146204600F07CF90BE12078BC
:10054000800601D5E06900E00620B8F1650F81461C
:1005500006D0B8F1660F18D0B8F1670F70D131E04E
:100560000020B9F1110F009001DB112301E009F126
:1005700001030AAA01A90CA8FFF7E4FEDDE90C704B
:10058000002609F10105834647E001204B46009013
:100590004FF000470AAA01A90CA8FFF7D3FEDDE936
:1005A0000DB00C995D46002610B909F101000D1837
:1005B000B9EB050003D4C0F1FF3609F10105A5EB45
:1005C00009002BE0B9F1010F01DA4FF00109002019
:1005D000B9F1110F0090484601DD112300E00346F8
:1005E0000AAA01A90CA8FFF7ADFEDDE90C704D4683
:1005F00000268346207800070AD4AB4500DA5D4622
:1006000001A8012D04DD411911F8011C302907D082
:100610004F4502DA17F1040F04DA012082460FE099
:100620006D1EEEE7002F02DCED1B3E4403E0781C5C
:10063000A84200DD7D1CB81B00F1010A4FF0004705
:100640002078000703D4AA4501DB4FF0FF3A0021D0
:10065000B7F1004F0DF143088DF8431024D002206C
:100660002B23002F01DA7F422D230A21021EA0F145
:10067000010000DC5FB197FBF1FC97FBF1F201FB9D
:100680001C7C17460CF1300C08F801CDEEE7A8F100
:10069000010003702188090501D5452100E065218D
:1006A000A0F1010800F8011C09980FA9A1EB0807A7
:1006B000FF1D00B10120411901EBEA70A169384426
:1006C000081A401EA0612078C00602D42046AFF36D
:1006D0000080099828B1D4E901219047206A401C84
:1006E00020622078C00622D52046AFF300801EE0AD
:1006F000002E04DBB34502DD01A8805D00E0302060
:10070000D4E901219047206A401C2062761CAAF19E
:1007100001005FEA000A0AD100F042F8C0680168EF
:10072000405CD4E901219047206A401C2062281EC9
:10073000A5F10105DCDC07E0D4E9012118F8010B83
:100740009047206A401C2062381EA7F10107F3DCA5
:100750002046AFF30080032011B043E630BCBDE873
:10076000C08F000001694A1C02610878704700B51B
:100770008FB0CDE901310021059105497944CDE9DA
:10078000031011466846FFF7A5FD0FB000BD00003D
:10079000E5FFFFFF0A6802F8010B0A6070470000DE
:1007A000004870475400002030B5B0F10A024FEA0B
:1007B000900E71F100034EEA817EB0EB0E0061EB0A
:1007C00091014FEA101E4EEA017E10EB0E0041EB44
:1007D00011114FEA102E4EEA016E10EB0E0041EBA4
:1007E00011214FEA104E4EEA014E10EB0E0041EB84
:1007F0001141401841F100014FEAD00040EA417038
:100800004FEAD10110EB80054FEA810444EA90746D
:1008100044EB01046D1944EB0404521BA3414FF057
:10082000000348BF0A3200D530BD401C41F1000131
:1008300030BD00002DE9F0411F4604460326016843
:10084000072A01F4006004DB08B116A505E016A52F
:1008500003E008B115A500E015A521F01000206007
:10086000A069C01EA0610FB1401EA0612046AFF379
:1008700000804FB1D4E9012138469047206A401CDE
:100880002062C01C206206E0206AFAE7D4E9012158
:1008900015F8010B9047761EF8D22046AFF3008082
:1008A000BDE8F0814E414E006E616E00494E46003B
:1008B000696E66002DE9F047814616468AB03348D6
:1008C00078440DC88DE80D0030487844801C03AC96
:1008D0000DC884E80D0041F69B300844372190FB99
:1008E000F1F290FBF1F5A5F1800501FB12041B3C30
:1008F00002D56442012000E00020DFF890A080468D
:100900000027FA44AAF1BE0A0DE0E00709D03246FA
:10091000684607EB47010AEB810100F037FB8DE8E1
:10092000070064107F1C002CEFD1184F7F44AC3FB0
:1009300018E0E80714D007EB04100DF1180A90E84E
:100940000E008AE80E00C068F04201D198190890A4
:10095000324606A903A800F019FB03AB83E80700A1
:100960006D10641C002DE4D132466946B8F1000FC9
:1009700003A802D000F0F6FA01E000F007FBC9E995
:100980000001C9F808200AB0BDE8F087F81B000094
:1009900000487047340000207546FFF7F9FFAE4667
:1009A00005006946534620F00700854618B020B57B
:1009B000FFF760FCBDE820404FF000064FF0000755
:1009C0004FF000084FF0000B21F00701AC46ACE8F7
:1009D000C009ACE8C009ACE8C009ACE8C0098D4664
:1009E000704710B50446AFF300802046BDE81040C4
:1009F000FFF712BC4FF0013C50F8042B51F8043BB8
:100A00009A4221D1A2EB0C03934313EACC1317D1E2
:100A100050F8042B51F8043B9A4215D1A2EB0C0379
:100A2000934313EACC130BD150F8042B51F8043B39
:100A30009A4209D1A2EB0C03934313EACC13DBD007
:100A40004FF00000704700BFD01A01BAB1FA81F12F
:100A500001F0180122FA01F0CB40C1F12001DBB214
:100A6000C0B2C01A2CFA01F3D11A914311EAC31192
:100A7000E6D1704701491820ABBEFEE72600020010
:100A800070475FEA400C08BF91F0000F4FEA8C23DB
:100A90004FEAC12243EA51514FEA1C5018BF00F5FA
:100AA000F0404FEA300018BF41F000415FEA6C5C53
:100AB00000F02980BCF1FF3F08BF40F08040704744
:100AC000130C06BF12044FF0100C4FF0000C130E65
:100AD00004BF12020CF1080C130F04BF12010CF139
:100AE000040C930F04BF92000CF1020CD30F04BF4F
:100AF00052000CF1010C11464FF00002A0F11F0052
:100B0000A0EB0C00704711F0004F08BF704731F0A8
:100B100000413FF4D5AF0B0C06BF09044FF0100C99
:100B20004FF0000C0B0E04BF09020CF1080C0B0F68
:100B300004BF09010CF1040C8B0F04BF89000CF1F8
:100B4000020CCB0F04BF49000CF1010CCCF12003C7
:100B5000A0EB0C0022FA03F302FA0CF241EA0301C3
:100B600000F10100704720F07F4C80EA030023F081
:100B70007F47ACEB070303F57C5300F0004003F123
:100B8000FF032DE980494FEA154B09B44FEA14439E
:100B900025EA0B4E24EA03480FF2042606EB13273E
:100BA00049083E785FEA320203FB0667C7F5000793
:100BB00007FB06F64FEA54374FEAD64606F102061F
:100BC00007FB066CCCF1005C4FEA1C472CEA074C93
:100BD00007FB06F40CFB06F504EB15464FEA9616E8
:100BE00034BF00204FF000404FEAD13706FB07FC2E
:100BF0004FEA1C4C0CFB0BF7D21B03FB0CF761EB11
:100C000007010CFB0EF7B0EB074072EB17420CFB31
:100C100008F734BFA2EB0742B2EB074261EB174182
:100C20004FEA0C444FEA910706FB07FC4FEA1C4CC5
:100C30000CFB0BF7B0EBC74072EB573203FB0CF722
:100C400034BFA2EBC742B2EBC74261EB57310CFB9A
:100C50000EF7B0EBC70072EB57720CFB08F734BF0E
:100C6000A2EBC702B2EBC70261EB5771039F4FEAD9
:100C7000816141EA921104EBCC044FEAD1374FEA8B
:100C8000826206FB07FC42EA90124FEA80604FEA5C
:100C90001C4C0CFB0BF7D21B03FB0CF761EB0701A1
:100CA0000CFB0EF7B0EB074072EB17420CFB08F79A
:100CB00034BFA2EB0742B2EB074261EB17414FEAA8
:100CC0008C554FEA910704EB9C2406FB07FC4FEA86
:100CD0001C4C0CFB0BF7B0EBC74072EB573203FB1D
:100CE0000CF734BFA2EBC742B2EBC74261EB5731FE
:100CF0000CFB0EF7B0EBC70072EB57720CFB08F75A
:100D000034BFA2EBC702B2EBC70261EB577115EB20
:100D10004C254FEA816141EA92114FEA82624FEA23
:100D2000D13742EA901206FB07FC44F100044FEA77
:100D300080604FEA1C4C0CFB0BF7D21B03FB0CF73B
:100D400061EB07010CFB0EF7B0EB074072EB1742AB
:100D50000CFB08F734BFA2EB0742B2EB074261EB92
:100D6000174115EB1C154FEA813141EA92414FEAD8
:100D7000823242EA90424FEA80304FEA0C7644F1E8
:100D8000000448EA03434EEA0B484FF0000EB2EB72
:100D9000080C71EB030724BF624639464EEB0E0E7A
:100DA0004FF0000B0018524149414BEB0B0BB2EBDB
:100DB000080C71EB03077BF1000B24BF6246394638
:100DC0004EEB0E0E4FF0000B0018524149414BEB19
:100DD0000B0BB2EB080C71EB03077BF1000B24BF8C
:100DE000624639464EEB0E0E51EA020718BF46F036
:100DF000010616EB0E7655F1000254F1000103D501
:100E0000BDE88901BDE80088BDE88901BDE800486A
:100E1000B619524141EB0101A3F1010370478080F3
:100E20007F7E7D7C7B7A7978777676757473727144
:100E300071706F6E6E6D6C6C6B6A6A6968686766FC
:100E400066656464636362616160605F5F5E5E5D8E
:100E50005D5C5C5B5B5A5A59595858575756565502
:100E600055555454535352525251515050504F4F64
:100E70004F4E4E4D4D4D4C4C4C4B4B4B4A4A4A49B4
:100E800049494848484747474746464645454544F7
:100E90004444444343434342424242414141002B84
:100EA00026D4770021D01CB54FEA370703B44FF0A2
:100EB00010004FF010014FF000000FBCBDE81040D3
:100EC0000BF1010BBBF1010F08BF5FEA170722BF4F
:100ED00012F1010211F101014FF0004143F1000351
:100EE00000F0004043EA00007047F9D35708DAE702
:100EF00046EA064613F1400F4FEA16461FDD13F18E
:100F0000200FDFBF16430A46002120335B42C8D0C2
:100F1000C3F1200746EA064602FA07F74FEA1646EB
:100F200046EA0706C3F1200722FA03F201FA07F79F
:100F300021FA03F14FF0000342EA0702B1E746EA63
:100F4000020646EA06464FEA164646EA0106BCBFD6
:100F500046EA0646360C4FF000034FF000024FF011
:100F600000019EE72DE9C048934630B491E838006F
:100F700007C831EA400C48BF34EA430C03D5FFF7F9
:100F8000F2FDFFF78CFFF0BCBDE800882DE9C048FA
:100F9000934630B491E8380007C810F0804F08BF7E
:100FA00013F0804F03D100F005F8FFF778FFF0BC95
:100FB000BDE8008820F07F4780EA030023F07F4CE3
:100FC00007EB0C03A3F57C5300F00040A3F1FE03F4
:100FD00092F0000F00F0B38095F0000F00F07780E2
:100FE0002DE901494FEA11404FEA144621EA004831
:100FF00000FB06FC24EA064708FB06F607FB08F898
:1010000000FB07F718EB06484CEB164C4FEA124B67
:1010100018EB07484FEA15464CEB174022EA0B4EF7
:101020000BFB06FC25EA06470EFB06F607FB0EFE49
:101030000BFB07F71EEB064E4CEB164C4FF0000671
:101040001EEB074E4CEB174B18EB0B0840F1000062
:1010500018EB0E0B58EB000840F100008F1A4FF010
:1010600000013CBFC943661B14BFB5EB040C002153
:101070003CBFC943F61B4FEA17444EEA8E0E27EADF
:1010800004454FEA1C4704FB07622CEA074C05FBAA
:1010900007F70CFB05F604FB0CFC16EB074642EBCE
:1010A000174216EB0C4642EB1C421BEB060658EBB4
:1010B0000202414146EA9E0601D5BDE80189B61902
:1010C000524141EB0101A3F10103BDE801894FEA5F
:1010D00014454FEA114724EA054621EA074C05FB6F
:1010E00007F406FB07F70CFB06F105FB0CFC11EB04
:1010F000074144EB17444FEA124711EB0C4144EB14
:101100001C4422EA074C05FB07F206FB07F70CFB21
:1011100006F605FB0CFC16EB074642EB174216EBF6
:101120000C4642EB1C456A1854F1000148BF704759
:10113000B619524141EB0101A3F10103704795F04B
:10114000000F37D04FEA11424FEA144721EA024616
:1011500024EA074C02FB07F106FB07F70CFB06F439
:1011600002FB0CFC14EB074441EB17414FEA154717
:1011700014EB0C4441EB1C4125EA074C02FB07F53C
:1011800006FB07F70CFB06F602FB0CFC16EB07460A
:1011900045EB174516EB0C4645EB1C42121951F175
:1011A000000148BF7047B619524141EB0101A3F15C
:1011B000010370474FEA14454FEA114724EA0546F8
:1011C00021EA074C05FB07F106FB07F70CFB06F2CB
:1011D0004FF0000605FB0CFC12EB074241EB1741F8
:1011E00012EB0C4251EB1C4148BF7047921841EB87
:1011F0000101A3F1010370472648C06C40F01200C2
:101200002449C86400204FF090410860C8606FF026
:101210003000214908600846006840F0100008606E
:101220001D480830006820F030001B490831086074
:101230000846006840F030000860081F006820F091
:101240000400091F086014480C30006820F03000CA
:1012500011490C3108606FF44030104908600846AD
:10126000006840F4803008600846806820F4403010
:1012700088600846806840F44030886008464068CE
:1012800020F4807048600846C06820F44030C86090
:1012900070470000001002400004004800100048A1
:1012A0000348006820F0040001490860704700000E
:1012B000140400480348006840F004000149086035
:1012C00070470000140400485E49096821F00701D6
:1012D0005C4A11601146096841F0020111605A49E7
:1012E000096841F48071584A116000BF5649096885
:1012F00001F480610029F9D010205349496821F098
:10130000F851514A51601146496841EA0061516003
:101310001146096821F08071116000BF4A490968CF
:1013200001F00071B1F1007FF8D04749C96821F0A0
:101330000301454AD1601146C96841F00201D160FC
:101340001146C96821F4FE4141F4A051D160114613
:10135000C96821F0700141F01001D1601146C968DF
:1013600021F0C061D1601146C96841F08071D1603F
:101370001146096841F08071116000BF3249096867
:1013800001F000710029F9D02F49896821F003018B
:101390002D4A91601146896841F00301916000BFB8
:1013A0002949896801F00C010C29F9D1264989687D
:1013B00021F0F001244A91601146896821F4E0612E
:1013C00091601146896821F4605191601146096865
:1013D00021F08061116000BF1B49096801F0806144
:1013E000B1F1806FF8D01849096921F4FE41164A1D
:1013F00011611146096941F4C05111611146096931
:1014000041F4003111611146096941F480311161E3
:101410001146096841F08061116000BF0A490968FE
:1014200001F080610029F9D007498831096821F469
:101430004001054AC2F888101146096E41F40011B6
:101440001166704700200240001002401A48C06C2C
:1014500040F008001849C8641848006820F470502B
:10146000164908600846006840F420500860134898
:101470002030006840F0EE601049203108600F48CD
:101480000830006840F470500C4908310860081DAD
:10149000006820F47050091D08600846006840F498
:1014A000A05008600548001D006820F06000034956
:1014B000091D08607047000000100240000C004841
:1014C00000B50D48806D40F400300B4988650A482E
:1014D0008830006820F00C00C1F888000846D0F879
:1014E000880040F00400C1F88800FFF7AFFF034810
:1014F00000F010F800BD0000001002400044004061
:10150000642242430723B2FBF3F100BF4A1E111EBF
:10151000FCD17047016821F001010160016821F0F0
:1015200010210160016821F400410160416821F44B
:101530004051416042F28D01C160016841F00C01EF
:1015400001601E4988421BD1016841F02001016001
:10155000016821F040010160016821F01001016083
:10156000016821F080010160016821F4807101604F
:10157000016821F040010160016821F00101016072
:101580000F49884209D1016A41F0400101620D49C9
:10159000096841F0C0010B4A1160016841F0010186
:1015A000016000BFC16901F400110029FAD000BF39
:1015B000C16901F480010029FAD07047004C004055
:1015C0000044004008380140F0B504460E46174676
:1015D00000250CE000BFE06900F080000028FAD090
:1015E000705D20854FF49670FFF78AFF6D1CBD4239
:1015F000F0D300BFE06900F040000028FAD0E069B5
:1016000020F04000E061F0BD03B401984100009873
:1016100050EAC12018BF04204A0D18BF40F0010055
:1016200040F2FF72B2EB515F08BF40F002000128A8
:1016300008BF052002B070472DE9F0414FF0000CC3
:101640000020DFF89480D8F8108008F40041DFF81B
:101650008880D8F8108008F48042DFF87C80D8F8C1
:10166000108008F40053DFF87080D8F8108008F478
:101670008054DFF86480D8F8108008F48066DFF8C2
:101680005880D8F8108008F40065DFF85080D8F84A
:10169000008008F00207DFF84480D8F8008008F0E6
:1016A000010C002900DD401C002A00DD801C002BFD
:1016B00000DD001D002C00DD0830002E00DD1030A4
:1016C000002D00DD2030002F00DD4030BCF1000F88
:1016D00000DD8030BDE8F08100100048101C00489B
:1016E0000B48C06C40F080000949C8640846C06CD3
:1016F00040F01000C86407480068C0F313000549B3
:1017000008600548006820F00F0003490860704732
:101710000010024000100048001C00482348C06C24
:1017200040F001002149C8644FF09040006820F06B
:1017300003004FF0904108600846006840F00A003E
:1017400008600846006A40F0110008621748806D82
:1017500040F00100154988654FF4FA50010688628F
:101760000006806940F2033188434FF08041886170
:101770000846806946F668010843C906886108463C
:10178000006840F0800008600846006A40F01100E0
:101790000862C820C8620420486388630007406963
:1017A00040F00100486101200860704700100240CD
:1017B0002DED088B82B0FFF787FDFFF71DFDFFF7CA
:1017C0007FFEFFF7ABFFFFF78BFF142230A13648F7
:1017D000FFF7FAFE5BE000F09BF8002857D0FFF718
:1017E0002BFF0446002C01DBFF2C07DDFFF762FD19
:1017F00019222EA12C48FFF7E7FE48E0FFF750FD25
:10180000204600F04AFB41EC1A0B9FED2F0B53ECE6
:10181000102B00F095FB41EC190B9FED2D0B53ECB9
:10182000102B00F0FFF841EC180BB0EE480AF0EE78
:10183000680A00F075F8204600F02FFB41EC1B0B06
:101840009FED250B53EC102B00F0A0F941EC1A0B87
:101850009FED230B53EC102B00F000FD41EC190B16
:1018600051EC180B53EC192BCDE900011EA12748B0
:10187000FEF71AFD05462A4624490B48FFF7A4FE49
:1018800051EC180B00F0DAFA4FF080414863A2E700
:101890000D0A57656C636F6D6520746F2050726F11
:1018A0006A360D0A00000000004400400D0A566F21
:1018B0006C74616765206F7574206F662072616E4D
:1018C00067652E0D0A000000C1A8A44E4013B1BFE9
:1018D000CBA145B6F33D3540000000000080394003
:1018E00000000000000014405365656E20766F6CA8
:1018F000746167653A205B25665D207C7C204343EC
:10190000523A205B25665D0D0A0D0A00000000209A
:101910000248006900F400407047000000100048D1
:1019200000B52DED088B85B0CDE900019DED000BD4
:1019300051EC100B00F038FC41EC180B9DED000B46
:1019400053EC182B51EC100B00F088FC41EC190BF8
:1019500001989FED270B10F0004F53EC102B51EC2A
:10196000190B9FED1FAB9FED20BB0ED000F0ACFA22
:101970000ED953EC1B2B51EC190B00F0DFFB1CD2E2
:1019800014E000BF41EC180B17E000F09DFA06D2FE
:1019900053EC1A2B51EC180B00F060FCF2E753ECFF
:1019A0001B2B51EC190B00F0C9FB06D853EC1A2B7A
:1019B00051EC180B00F036F8E4E78DED028B9DED4D
:1019C000000B18EE901A10EE900A61F31E000390BF
:1019D0009DED020B05B051EC100BBDEC088B00BD6A
:1019E000000000000000F03F000000000000E03FA9
:1019F000000000000000E0BF10B500290AD0087800
:101A0000002807D005487844FEF7F4FF002801D0ED
:101A1000002010BD0248784410BD0000DE0A00001E
:101A2000D60A000010B591EA030F48BF83F00043C7
:101A300000F11C84841A71EB030C05D2121943EBDC
:101A40000C03001B61EB0C01DFF824E14FEA115499
:101A5000A4EB135C1EEA430F18BF9EEA445F73D0E9
:101A600023EA0E03DCF1200E21EA045143F4801333
:101A700032D322FA0CFE10EB0E0023FA0CFE41EBDF
:101A80000E01CCF1200E03FA0EFE10EB0E0051F108
:101A90000001B1F5801FCCF1200E32D201EB0451D0
:101AA00012FA0EF2BDE8104058BF7047401C38BF14
:101AB0005FEA420218BF7047002814BF20F00100FF
:101AC00041F100014FEA410313F5001F38BF704791
:101AD000A1F1C04100F02CBB012A43EB0302ACF1A1
:101AE000200CDCF11F0E32BF4FF0000E23FA0CF376
:101AF00010EB030041EB0451B4EB115FD0D0A1EB2C
:101B0000045101F5801149085FEA300001EB0451EE
:101B10000ED350F1000038BF12FA0EFE08D1BDE816
:101B20001040C9E7401C38BF5FEA4202CAD1C3E790
:101B3000BDE810404FEA410313F5001F38BF70475E
:101B4000A1F1C04100F0F4BA9EEA445F08D011EA66
:101B50005E0FBDE8104004BF01F000410020704757
:101B6000BDE8104070B500F095FA00BF64FBBE3EC2
:101B70000000E0FF491058BFC1F140415B1058BF61
:101B8000C3F140438B42EFF3008070472DE9C04121
:101B900030B4DFF8A0C23CEA111418BF3CEA1314B9
:101BA00000F0EC8081EA03051CEA111444EAD574C4
:101BB00018BF1CEA131500F0C780A4EB05044FF012
:101BC000004545EAC12145EAC32341EA505143EAB1
:101BD000525304F17F74994204F500344FEAC02057
:101BE0004FEAC22208BF904200F09C804FEA136582
:101BF0000FF24016765D4FEA134506FB05F7C7F175
:101C0000807706FB07F74FEAD737A7FB03687642D2
:101C1000C8F58038A7FB06CE38BFA8F1010807FB3E
:101C200008E64FF0000EA6FB028CE6FB03CEDCF1CB
:101C3000000CCEF1004E38BFAEF1010EA6FB0C58E1
:101C40004FF000074FF00005E6FB0E87A1FB08C62A
:101C5000A0FB07CE16EB0E0645F10005E1FB07657C
:101C600015F1E04E7EBFA4F580345FEA46066D4173
:101C700016F1800745F100054FEA17274FEA06667F
:101C800047EA0567A6F1DE46B6F1805F4FEA152503
:101C90001FD9384624F0010C05EBC471BCF1FE6F6E
:101CA00001EB0C1102D8F0BCBDE8008124425CBFFE
:101CB00001F5801E9EEAC47F02D4F0BCBDE800811D
:101CC000244238D4F0BCA1F1C041BDE8004100F08D
:101CD0002FBA4FEAD22242EA43524FEAD323A7FB5C
:101CE00002864FEAD02040EA415007FB03661EEA15
:101CF0000E0F4FEAD12105FB026658BFA6EB005636
:101D0000B6EB00564FEA520E4EEAC37E18EB0E0EAB
:101D100056EB530EBDD518EB02085E417F1C55F102
:101D20000005B6E74FF480154FF000074FF00006AE
:101D30004FF00008ADE7F0BC4FF0000001F1C041EA
:101D400001F00041BDE8008111EA0C1F0CEA1315F7
:101D500000D00CE013EA0C1F00F025804FF00000CB
:101D6000F0BC81EA030101F00041BDE80081F0BC54
:101D7000BDE8004181EA030100F0DAB9F0BCBDE83A
:101D8000004170B500F086F9097EFC3E00F007B80E
:101D900081EA03014FF0000001F00041704781EA41
:101DA000030100F0C5B9F0BCBDE800414FF00000F0
:101DB00021497047FFFDFBF9F7F5F4F2F0EEEDEB8A
:101DC000E9E8E6E4E3E1E0DEDDDBDAD8D7D5D4D339
:101DD000D1D0CFCDCCCBCAC8C7C6C5C4C2C1C0BF85
:101DE000BEBDBCBBBAB9B8B7B6B5B4B3B2B1B0AF8B
:101DF000AEADACABAAA9A8A8A7A6A5A4A3A3A2A16F
:101E0000A09F9F9E9D9C9C9B9A9999989797969529
:101E100095949393929191908F8F8E8E8D8C8C8BC5
:101E20008B8A89898888878786858584848383824D
:101E3000828181800000FF070000F87F4FEA4103A4
:101E40004FEA5353A3F58063D3F11E03C8BFD3F108
:101E5000210C0CDD4FF0004242EAC12242EA50520E
:101E600032FA03FC8CEAE17CACEBE1707047102B9A
:101E7000C4BF0020704703F5787CBCF1FF3F04D05D
:101E80006FF0004282EA2100704770B500F002F95D
:101E90004992248000207047F2E710F0004248BFCA
:101EA0004042B0FA80F310FA03F10AD0C3F11D03E7
:101EB00003F580634FEA415002EB035202EBD1215C
:101EC00070474FF00000704751EA030C17D41CF51F
:101ED000801F58BFBCF5801F00F10680994218BFD3
:101EE000704708BF9042704707D711F5801F58BF51
:101EF00013F5801F19D499427047894270471CF529
:101F0000801F08D5BCF5801FF7D58B4218BF7047DE
:101F100008BF824270474FF4001C1CEB410F38BFD2
:101F20001CEB430F01D28B42704770B500F0B2F842
:101F3000922449004FF000514FF08053FFF71ABE32
:101F4000DFF848C170B51CEA111E1EBF1CEA13154C
:101F50009EEA0C0F95EA0C0F00F06F8081EA0304F3
:101F600023EA4C134EEAD47E21EA4C1141F480114D
:101F700043F48013AE44A1FB024CA0FB0365AEF119
:101F80007F7E361955EB0C05A1FB034C4CF1000389
:101F9000A0FB021C16EB0C06654153F1000309423D
:101FA00018BF46F0010613F4007F0BD14FEA03314E
:101FB0004FEA0530340341EA155140EA16506FF0FC
:101FC00003020AE04FEAC3214FEAC520F40241EAC6
:101FD000555140EA56506FF0020202EB2E4201EBDF
:101FE000025585EACE710AD05FEA440C18BF24F08E
:101FF000004450F1000041F1000120EAD47040F2A9
:10200000FE7C624500D270BDA84214BF4FF08044F0
:102010004FF04044002E08BF0024BEF1806FA8BFDF
:10202000A1F1C041BDE8704080F282804FF0000015
:1020300001F1C04101F0004170479EEA0C0F0CEA2B
:10204000131518BF95EA0C0F06D04FF0000081EA77
:10205000030E0EF0004170BD00F01CF88900013E37
:1020600000F007B800F009B84FEA430C5FEA5C5C87
:1020700008D081EA030100F05BB84FEA410C5FEA47
:102080005C5CF6D14FF00000014970470000FF078B
:102090000000F87F0EF1020E2EF0030E5EF8046BC6
:1020A000364205D4012A43EB030515F5001F12D86B
:1020B000012841EB010C1CF5001F0CD80ED14FEA92
:1020C000D17C15F5001F0CEB4C0C0CF1020C08BF79
:1020D0004CEBD37C04E04FF0080C01E04FEAD37CDA
:1020E0000CEB4C0526FA05F606F00706B6F1040CD3
:1020F00006D20EEB860CBDE870404CF0010C604738
:10210000DFE80CF0090B02024FF000414FF0000035
:10211000A1F5002170BD19461046012851EB0104BC
:1021200018BFD4F5001484BF002001F0004170BD39
:102130000808A0F500114FEA3101704753EA010C7D
:1021400017D41CF5801F58BFBCF5801F00F1068016
:102150008B4218BF704708BF8242704707D713F5FC
:10216000801F58BF11F5801F19D48B4270479B42C6
:1021700070471CF5801F08D5BCF5801FF7D5994224
:1021800018BF704708BF904270474FF4001C1CEB0B
:10219000430F38BF1CEB410F01D2994270470FB477
:1021A0000CBC03BCFFF7C1BE5FEA410C5FEA5C5C9C
:1021B000ACF580635B1C39D4D3F1340240F3458025
:1021C000B2F1200314DA4FF0010C0CFA02FCACF16E
:1021D00001030340B3EB5C0220EA030008BF10EAEE
:1021E0000C0F98BF704710EB0C0041F100017047D5
:1021F0000AD0C3F1200201FA02FC012821FA03F1FE
:1022000001FA03F14CF100004FF0010C0CFA03FC51
:10221000ACF10103B0F1004F21EA030108BF11EA5C
:102220000C0F4FF0000088BF61447047B3F1FF3FCF
:1022300028BF50EAC12C01F000414FF0000084BFDC
:1022400041F07C5141F470017047B3F5806FB8BF25
:10225000704770B5FFF71EFF40DBB6BE10B591EAC0
:10226000030F48BF83F000433FF5E4AB841A71EBE2
:10227000030C07D212198CF0004C43EB0C03001B2B
:1022800061EB0C01DFF8A4E14FEA1154A4EB135CFD
:102290001EEA430F18BF9EEA445F00F0B08023EAB5
:1022A0006E03524221EA0451C3EB6E0338BF5B1E3A
:1022B000DCF1200E25D322FA0CFE10EB0E0043FABF
:1022C0000CFE41EB0E01CCF1200E03FA0EFE10EBDA
:1022D0000E0051F10001CCF1200E29D412FA0EF2B9
:1022E00001EB0451BDE8104058BF7047401C1CBFB3
:1022F000B2F1004F704700280CBF491C20F00100CC
:10230000704712EB020E43EB030218BF4FF0010EB1
:102310004EEA4202ACF1200CDCF11E0E54D943FA15
:102320000CFE10EB0E0051F1FF31CCF11E0ED5D595
:102330000EF1010E12FA0EFE404141EB010101EBDC
:10234000445C5FEA5C5C10D910EBDE7001EB045179
:1023500038BFBEF1004FBDE8104018BF70470028DD
:102360000CBF491C20F00100704730D24FEAD42C3A
:1023700011F5001124F400641BD0B1FA81F20B3A7C
:10238000A41AA41ED2F12003914030FA03F319439A
:10239000904001EBCC71002C01EB0451BDE81040E2
:1023A000A8BF704701F1C0414FF0000001F00041AB
:1023B0007047B0FA80F310FA03F100D110BDE41AAF
:1023C000173C4805C90AE4E701EB045110BD491068
:1023D00001EB0451BDE810404FEA300002E04FF03D
:1023E000000170474A0008BF0042F8D0B2F5001F54
:1023F00028BF704701F000414FF0000070479EEA8F
:10240000445F07D011EA5E0FBDE8104004BF002111
:1024100000207047BDE8104070B5FFF73BFE00BFDD
:1024200040DFF63E83F00041104670470000E0FFB9
:102430004FF04070E1EE100A7047FEF759B8000007
:1024400002400000000000A0000000000540000065
:10245000000000C8000000000C4000000000409C8C
:1024600000000000194000000020BCBE0000000079
:1024700034400000BFC91B8E00000004B5400000BE
:10248000504BCFD06607E2CF010000006C41000046
:102490003E8251AADFEEA73401000000D9420000BD
:1024A000DCB5A0E23A301F97FFFFFFFFB445000004
:1024B000FD25A0C8E9A3C14FFFFFFFFFFF3F0000BC
:1024C0000000008000000000FF3F000000000080CE
:1024D0000000000000250008000000209806000011
:1024E000C40100081C00000043000000F8FFFFFFCB
:1024F0000C0000000E0000000F0000002E00000085
:040000050800018965
:00000001FF
