:020000040800F2
:10000000600600200D020008490200084B020008AB
:100010004D0200084F0200085102000800000000D5
:100020000000000000000000000000005302000873
:10003000550200080000000057020008590200089D
:100040005B0200085B0200085B0200085B0200081C
:100050005B0200085B0200085B0200085B0200080C
:100060005B0200085B0200085B0200085B020008FC
:100070005B0200085B0200085B0200085B020008EC
:100080005B0200085B0200085B0200085B020008DC
:100090005B0200085B0200085B0200085B020008CC
:1000A0005B0200085B0200085B0200085B020008BC
:1000B0005B0200085B0200085B0200085B020008AC
:1000C0005B0200085B0200085B0200085B0200089C
:1000D0005B0200085B0200085B0200085B0200088C
:1000E0005B0200085B0200085B0200085B0200087C
:1000F0005B0200085B0200085B0200085B0200086C
:100100005B0200085B0200085B0200085B0200085B
:100110005B0200085B0200085B0200085B0200084B
:100120005B0200085B0200085B0200085B0200083B
:100130005B0200085B0200085B0200085B0200082B
:100140005B0200085B0200085B0200085B0200081B
:100150005B0200085B0200085B0200085B0200080B
:100160005B0200085B0200085B0200085B020008FB
:100170005B0200085B0200085B0200080000000050
:100180005B0200085B02000800F002F800F02EF8A5
:100190000AA090E8000C82448344AAF10107DA45E2
:1001A00001D100F023F8AFF2090EBAE80F0013F006
:1001B000010F18BFFB1A43F001031847C8110000D4
:1001C000D81100000023002400250026103A28BF83
:1001D00078C1FBD8520728BF30C148BF0B607047B9
:1001E0001FB501F0C9F81FBD10B510BD00F053F8E0
:1001F0001146FFF7F5FF00F0F9FA00F071F803B4CB
:10020000FFF7F2FF03BC00F079F800001648174929
:10021000174B99423CBF50F8042B41F8042BF8D3FC
:1002200014494FF000028B4238BF43F8042BFAD335
:10023000DFF84400016841F470010160BFF34F8FA3
:10024000BFF36F8F0D480047FEE7FEE7FEE7FEE7CE
:10025000FEE7FEE7FEE7FEE7FEE7FEE7084809499E
:10026000094A0A4B70470000941300080000002060
:10027000000000206006002088ED00E089010008F1
:100280006000002060060020600200206002002064
:10029000704770477047754600F02CF8AE46050071
:1002A0006946534620F00700854618B020B5FFF791
:1002B000D5FFBDE820404FF000064FF000074FF09B
:1002C00000084FF0000B21F00701AC46ACE8C00974
:1002D000ACE8C009ACE8C009ACE8C0098D4670477D
:1002E00010B50446AFF300802046BDE81040FFF78C
:1002F00086BF000000487047000000200149182018
:10030000ABBEFEE726000200704700002648C06C26
:1003100040F012002449C86400204FF0904108606A
:10032000C8606FF03000214908600846006840F05E
:10033000100008601D480830006820F030001B499C
:10034000083108600846006840F030000860081F67
:10035000006820F00400091F086014480C30006891
:1003600020F0300011490C3108606FF44030104922
:1003700008600846006840F48030086008468068DD
:1003800020F4403088600846806840F4403088603F
:100390000846406820F4807048600846C06820F431
:1003A0004030C86070470000001002400004004860
:1003B000001000480348006820F00400014908606C
:1003C00070470000140400480348006840F004002F
:1003D0000149086070470000140400485E4909683C
:1003E00021F007015C4A11601146096841F00201E1
:1003F00011605A49096841F48071584A116000BF80
:100400005649096801F480610029F9D01020534948
:10041000496821F0F851514A51601146496841EA52
:10042000006151601146096821F08071116000BFC0
:100430004A49096801F00071B1F1007FF8D04749DD
:10044000C96821F00301454AD1601146C96841F0ED
:100450000201D1601146C96821F4FE4141F4A05166
:10046000D1601146C96821F0700141F01001D160DE
:100470001146C96821F0C061D1601146C96841F0D8
:100480008071D1601146096841F08071116000BF30
:100490003249096801F000710029F9D02F498968B3
:1004A00021F003012D4A91601146896841F0030152
:1004B000916000BF2949896801F00C010C29F9D12C
:1004C0002649896821F0F001244A91601146896823
:1004D00021F4E06191601146896821F460519160D6
:1004E0001146096821F08061116000BF1B4909684D
:1004F00001F08061B1F1806FF8D01849096921F4E9
:10050000FE41164A11611146096941F4C051116159
:100510001146096941F4003111611146096941F43C
:10052000803111611146096841F08061116000BF9E
:100530000A49096801F080610029F9D0074988312A
:10054000096821F44001054AC2F888101146096E75
:1005500041F4001111667047002002400010024073
:100560001A48C06C40F008001849C8641848006870
:1005700020F47050164908600846006840F4205086
:10058000086013482030006840F0EE6010492031C8
:1005900008600F480830006840F470500C4908317A
:1005A0000860081D006820F47050091D08600846A6
:1005B000006840F4A05008600548001D006820F065
:1005C00060000349091D08607047000000100240E8
:1005D000000C004800B50D48806D40F400300B4918
:1005E00088650A488830006820F00C00C1F888004F
:1005F0000846D0F8880040F00400C1F88800FFF7F2
:10060000AFFF034800F010F800BD000000100240EA
:1006100000440040642242430723B2FBF3F100BFD1
:100620004A1E111EFCD17047016821F001010160D2
:10063000016821F010210160016821F4004101608E
:10064000416821F44051416042F28D01C16001686E
:1006500041F00C0101601E4988421BD1016841F044
:1006600020010160016821F040010160016821F072
:1006700010010160016821F080010160016821F42E
:1006800080710160016821F040010160016821F082
:10069000010101600F49884209D1016A41F040011E
:1006A00001620D49096841F0C0010B4A11600168FF
:1006B00041F00101016000BFC16901F4001100298E
:1006C000FAD000BFC16901F480010029FAD0704757
:1006D000004C00400044004008380140F0B504469A
:1006E0000E46174600250CE000BFE06900F08000D0
:1006F0000028FAD0705D20854FF49670FFF78AFFCE
:100700006D1CBD42F0D300BFE06900F0400000283E
:10071000FAD0E06920F04000E061F0BD01480068D7
:10072000C0B27047100400482E48C06C40F0010071
:100730002C49C8644FF09040006800204FF0904171
:1007400008600846006840F00A0008600846006A31
:1007500040F0110008622348806D40F001002149FB
:1007600088650846C06C40F00200C8641E480068F6
:1007700020F030001C4908601B480C300068002045
:1007800019490C3108600846006800F00200086052
:100790004FF4FA50010688620006806920F00300D9
:1007A00088610846806940F06800886108460068F2
:1007B00040F0800008600846006A40F001000862CE
:1007C0000846006A40F002000862C820C86204209F
:1007D00048630007406940F001004861012008605B
:1007E0007047000000100240000400482DED068B09
:1007F000FFF7F4FDFFF78AFDFFF7ECFEFFF794FF2C
:10080000142223A12848FFF769FF40E000F068F8B0
:1008100000283CD0FFF782FF0446002C01DBFF2CB0
:1008200014DDFFF7D1FD204600F0DAFA41EC190B98
:100830009FED1E0B53EC102B00F07AF941EC1A0BD4
:1008400019221CA11848FFF749FF20E0FFF7B2FD6D
:10085000204600F0C5FA41EC1A0B9FED1D0B53EC3E
:10086000102B00F011FB41EC190B9FED1B0B53EC0F
:10087000102B00F0A9F841EC180BB0EE480AF0EE8E
:10088000680A00F035F805464FF080404563BDE743
:100890000D0A57656C636F6D6520746F2050726F21
:1008A0006A360D0A0000000000440040000000000D
:1008B000008039400D0A566F6C74616765206F7552
:1008C00074206F662072616E67652E0D0A0000004D
:1008D000C1A8A44E4013B1BFCBA145B6F33D3540EE
:1008E0000248006800F00100704700001004004852
:1008F00000B52DED088B85B0CDE900019DED000B15
:1009000051EC100B00F0F4FB41EC180B9DED000BCB
:1009100053EC182B51EC100B00F044FC41EC190B7C
:1009200001989FED270B10F0004F53EC102B51EC6A
:10093000190B9FED1FAB9FED20BB0ED000F068FAA6
:100940000ED953EC1B2B51EC190B00F09BFB1CD266
:1009500014E000BF41EC180B17E000F059FA06D282
:1009600053EC1A2B51EC180B00F01CFCF2E753EC83
:100970001B2B51EC190B00F085FB06D853EC1A2BFE
:1009800051EC180B00F020F8E4E78DED028B9DEDA3
:10099000000B18EE901A10EE900A61F31E000390FF
:1009A0009DED020B05B051EC100BBDEC088B00BDAA
:1009B000000000000000F03F000000000000E03FE9
:1009C000000000000000E0BF10B591EA030F48BF2F
:1009D00083F0004300F1EE83841A71EB030C05D21F
:1009E000121943EB0C03001B61EB0C01DFF824E14F
:1009F0004FEA1154A4EB135C1EEA430F18BF9EEAA2
:100A0000445F73D023EA0E03DCF1200E21EA045187
:100A100043F4801332D322FA0CFE10EB0E0023FABB
:100A20000CFE41EB0E01CCF1200E03FA0EFE10EB92
:100A30000E0051F10001B1F5801FCCF1200E32D231
:100A400001EB045112FA0EF2BDE8104058BF704796
:100A5000401C38BF5FEA420218BF7047002814BF2D
:100A600020F0010041F100014FEA410313F5001F9E
:100A700038BF7047A1F1C04100F0FEBA012A43EB34
:100A80000302ACF1200CDCF11F0E32BF4FF0000E60
:100A900023FA0CF310EB030041EB0451B4EB115FAC
:100AA000D0D0A1EB045101F5801149085FEA300074
:100AB00001EB04510ED350F1000038BF12FA0EFEC4
:100AC00008D1BDE81040C9E7401C38BF5FEA4202C8
:100AD000CAD1C3E7BDE810404FEA410313F5001F38
:100AE00038BF7047A1F1C04100F0C6BA9EEA445F2A
:100AF00008D011EA5E0FBDE8104004BF01F00041CC
:100B000000207047BDE8104070B500F067FA00BFE4
:100B100064FBBE3E0000E0FF491058BFC1F14041F8
:100B20005B1058BFC3F140438B42EFF30080704726
:100B30002DE9C04130B4DFF8A0C23CEA111418BF5F
:100B40003CEA131400F0EC8081EA03051CEA11145E
:100B500044EAD57418BF1CEA131500F0C780A4EB53
:100B600005044FF0004545EAC12145EAC32341EAA7
:100B7000505143EA525304F17F74994204F5003412
:100B80004FEAC0204FEAC22208BF904200F09C808A
:100B90004FEA13650FF24016765D4FEA134506FBE8
:100BA00005F7C7F1807706FB07F74FEAD737A7FBB2
:100BB00003687642C8F58038A7FB06CE38BFA8F197
:100BC000010807FB08E64FF0000EA6FB028CE6FBCF
:100BD00003CEDCF1000CCEF1004E38BFAEF1010EB9
:100BE000A6FB0C584FF000074FF00005E6FB0E8700
:100BF000A1FB08C6A0FB07CE16EB0E0645F10005CB
:100C0000E1FB076515F1E04E7EBFA4F580345FEA95
:100C100046066D4116F1800745F100054FEA17279A
:100C20004FEA066647EA0567A6F1DE46B6F1805F41
:100C30004FEA15251FD9384624F0010C05EBC47185
:100C4000BCF1FE6F01EB0C1102D8F0BCBDE80081D5
:100C500024425CBF01F5801E9EEAC47F02D4F0BC32
:100C6000BDE80081244238D4F0BCA1F1C041BDE808
:100C7000004100F001BA4FEAD22242EA43524FEA61
:100C8000D323A7FB02864FEAD02040EA415007FB5E
:100C900003661EEA0E0F4FEAD12105FB026658BF1C
:100CA000A6EB0056B6EB00564FEA520E4EEAC37E54
:100CB00018EB0E0E56EB530EBDD518EB02085E4135
:100CC0007F1C55F10005B6E74FF480154FF0000783
:100CD0004FF000064FF00008ADE7F0BC4FF0000009
:100CE00001F1C04101F00041BDE8008111EA0C1F93
:100CF0000CEA131500D00CE013EA0C1F00F025805D
:100D00004FF00000F0BC81EA030101F00041BDE8B2
:100D10000081F0BCBDE8004181EA030100F0ACB9FC
:100D2000F0BCBDE8004170B500F058F9097EFC3E0A
:100D300000F007B881EA03014FF0000001F0004124
:100D4000704781EA030100F097B9F0BCBDE80041AB
:100D50004FF0000021497047FFFDFBF9F7F5F4F271
:100D6000F0EEEDEBE9E8E6E4E3E1E0DEDDDBDAD846
:100D7000D7D5D4D3D1D0CFCDCCCBCAC8C7C6C5C4A4
:100D8000C2C1C0BFBEBDBCBBBAB9B8B7B6B5B4B3BB
:100D9000B2B1B0AFAEADACABAAA9A8A8A7A6A5A4A6
:100DA000A3A3A2A1A09F9F9E9D9C9C9B9A9999986A
:100DB0009797969595949393929191908F8F8E8E0D
:100DC0008D8C8C8B8B8A898988888787868585849A
:100DD00084838382828181800000FF070000F87F86
:100DE00010F0004248BF4042B0FA80F310FA03F11D
:100DF0000AD0C3F11D0303F580634FEA415002EBB3
:100E0000035202EBD12170474FF000007047000001
:100E100051EA030C17D41CF5801F58BFBCF5801F86
:100E200000F10680994218BF704708BF9042704792
:100E300007D711F5801F58BF13F5801F19D49942A9
:100E40007047894270471CF5801F08D5BCF5801F8C
:100E5000F7D58B4218BF704708BF824270474FF4E6
:100E6000001C1CEB410F38BF1CEB430F01D28B421F
:100E7000704770B500F0B2F8922449004FF000516D
:100E80004FF08053FFF748BEDFF848C170B51CEA49
:100E9000111E1EBF1CEA13159EEA0C0F95EA0C0FDB
:100EA00000F06F8081EA030423EA4C134EEAD47EFB
:100EB00021EA4C1141F4801143F48013AE44A1FBAC
:100EC000024CA0FB0365AEF17F7E361955EB0C0595
:100ED000A1FB034C4CF10003A0FB021C16EB0C061B
:100EE000654153F10003094218BF46F0010613F4AF
:100EF000007F0BD14FEA03314FEA0530340341EA5A
:100F0000155140EA16506FF003020AE04FEAC32180
:100F10004FEAC520F40241EA555140EA56506FF0BD
:100F2000020202EB2E4201EB025585EACE710AD095
:100F30005FEA440C18BF24F0004450F1000041F176
:100F4000000120EAD47040F2FE7C624500D270BD00
:100F5000A84214BF4FF080444FF04044002E08BF19
:100F60000024BEF1806FA8BFA1F1C041BDE8704070
:100F700080F282804FF0000001F1C04101F0004199
:100F800070479EEA0C0F0CEA131518BF95EA0C0F78
:100F900006D04FF0000081EA030E0EF0004170BD54
:100FA00000F01CF88900013E00F007B800F009B815
:100FB0004FEA430C5FEA5C5C08D081EA030100F071
:100FC0005BB84FEA410C5FEA5C5CF6D14FF0000081
:100FD000014970470000FF070000F87F0EF1020E84
:100FE0002EF0030E5EF8046B364205D4012A43EB63
:100FF000030515F5001F12D8012841EB010C1CF563
:10100000001F0CD80ED14FEAD17C15F5001F0CEB58
:101010004C0C0CF1020C08BF4CEBD37C04E04FF0FD
:10102000080C01E04FEAD37C0CEB4C0526FA05F6E0
:1010300006F00706B6F1040C06D20EEB860CBDE8EE
:1010400070404CF0010C6047DFE80CF0090B020225
:101050004FF000414FF00000A1F5002170BD19468E
:101060001046012851EB010418BFD4F5001484BFC9
:10107000002001F0004170BD0808A0F500114FEA02
:101080003101704753EA010C17D41CF5801F58BF7B
:10109000BCF5801F00F106808B4218BF704708BF67
:1010A0008242704707D713F5801F58BF11F5801F84
:1010B00019D48B4270479B4270471CF5801F08D59E
:1010C000BCF5801FF7D5994218BF704708BF904202
:1010D00070474FF4001C1CEB430F38BF1CEB410F53
:1010E00001D2994270470FB40CBC03BCFFF7C1BEDC
:1010F0005FEA410C5FEA5C5CACF580635B1C39D451
:10110000D3F1340240F34580B2F1200314DA4FF0FA
:10111000010C0CFA02FCACF101030340B3EB5C02DE
:1011200020EA030008BF10EA0C0F98BF704710EBCD
:101130000C0041F1000170470AD0C3F1200201FA0E
:1011400002FC012821FA03F101FA03F14CF100003D
:101150004FF0010C0CFA03FCACF10103B0F1004FAD
:1011600021EA030108BF11EA0C0F4FF0000088BF0D
:1011700061447047B3F1FF3F28BF50EAC12C01F032
:1011800000414FF0000084BF41F07C5141F47001F8
:101190007047B3F5806FB8BF704770B5FFF71EFF9B
:1011A00040DBB6BE10B591EA030F48BF83F00043A1
:1011B0003FF512AC841A71EB030C07D212198CF0B4
:1011C000004C43EB0C03001B61EB0C01DFF8A4E1C6
:1011D0004FEA1154A4EB135C1EEA430F18BF9EEABA
:1011E000445F00F0B08023EA6E03524221EA0451CA
:1011F000C3EB6E0338BF5B1EDCF1200E25D322FA51
:101200000CFE10EB0E0043FA0CFE41EB0E01CCF18C
:10121000200E03FA0EFE10EB0E0051F10001CCF18E
:10122000200E29D412FA0EF201EB0451BDE8104051
:1012300058BF7047401C1CBFB2F1004F70470028D8
:101240000CBF491C20F00100704712EB020E43EB6B
:10125000030218BF4FF0010E4EEA4202ACF1200C1F
:10126000DCF11E0E54D943FA0CFE10EB0E0051F1C6
:10127000FF31CCF11E0ED5D50EF1010E12FA0EFE85
:10128000404141EB010101EB445C5FEA5C5C10D939
:1012900010EBDE7001EB045138BFBEF1004FBDE82A
:1012A000104018BF704700280CBF491C20F00100F7
:1012B000704730D24FEAD42C11F5001124F40064A9
:1012C0001BD0B1FA81F20B3AA41AA41ED2F120036A
:1012D000914030FA03F31943904001EBCC71002C9C
:1012E00001EB0451BDE81040A8BF704701F1C041B7
:1012F0004FF0000001F000417047B0FA80F310FA9F
:1013000003F100D110BDE41A173C4805C90AE4E70F
:1013100001EB045110BD491001EB0451BDE8104030
:101320004FEA300002E04FF0000170474A0008BF6A
:101330000042F8D0B2F5001F28BF704701F000410D
:101340004FF0000070479EEA445F07D011EA5E0F3D
:10135000BDE8104004BF002100207047BDE81040E8
:1013600070B5FFF73BFE00BF40DFF63E83F0004163
:10137000104670470000E0FF4FF04070E1EE100AA9
:101380007047000094130008000000206006000071
:04139000C40100088C
:040000050800018965
:00000001FF
