:020000040800F2
:10000000780600202902000865020008670200083F
:10001000690200086B0200086D0200080000000081
:100020000000000000000000000000006F02000857
:100030007102000800000000730200087502000849
:1000400077020008770200087702000877020008AC
:10005000770200087702000877020008770200089C
:10006000770200087702000877020008770200088C
:10007000770200087702000877020008770200087C
:10008000770200087702000877020008770200086C
:10009000770200087702000877020008770200085C
:1000A000770200087702000877020008770200084C
:1000B000770200087702000877020008770200083C
:1000C000770200087702000877020008770200082C
:1000D000770200087702000877020008770200081C
:1000E000770200087702000877020008770200080C
:1000F00077020008770200087702000877020008FC
:1001000077020008770200087702000877020008EB
:1001100077020008770200087702000877020008DB
:1001200077020008770200087702000877020008CB
:1001300077020008770200087702000877020008BB
:1001400077020008770200087702000877020008AB
:10015000770200087702000877020008770200089B
:10016000770200087702000877020008770200088B
:1001700077020008770200087702000800000000FC
:10018000770200087702000800F002F800F03CF85F
:100190000AA090E8000C82448344AAF10107DA45E2
:1001A00001D100F031F8AFF2090EBAE80F0013F0F8
:1001B000010F18BFFB1A43F0010318474006000067
:1001C00060060000103A24BF78C878C1FAD85207F8
:1001D00024BF30C830C144BF04680C6070470000C1
:1001E0000023002400250026103A28BF78C1FBD840
:1001F000520728BF30C148BF0B6070471FB500F0E1
:10020000F7FA1FBD10B510BD00F053F81146FFF707
:10021000F5FF00F0C7FA00F071F803B4FFF7F2FF42
:1002200003BC00F079F8000016481749174B9942B3
:100230003CBF50F8042B41F8042BF8D314494FF07D
:1002400000028B4238BF43F8042BFAD3DFF8440096
:10025000016841F470010160BFF34F8FBFF36F8FEE
:100260000D480047FEE7FEE7FEE7FEE7FEE7FEE794
:10027000FEE7FEE7FEE7FEE708480949094A0A4BA0
:10028000704700001C080008000000201800002033
:100290007806002088ED00E0890100087800002041
:1002A000780600207802002078020020704770470E
:1002B0007047754600F02CF8AE4605006946534677
:1002C00020F00700854618B020B5FFF7D5FFBDE840
:1002D00020404FF000064FF000074FF000084FF0AD
:1002E000000B21F00701AC46ACE8C009ACE8C0093E
:1002F000ACE8C009ACE8C0098D46704710B50446AB
:10030000AFF300802046BDE81040FFF786BF000035
:10031000004870471800002001491820ABBEFEE7D6
:1003200026000200704700002648C06C40F0120012
:100330002449C86400204FF090410860C8606FF005
:100340003000214908600846006840F0100008604D
:100350001D480830006820F030001B490831086053
:100360000846006840F030000860081F006820F070
:100370000400091F086014480C30006820F03000A9
:1003800011490C3108606FF440301049086008468C
:10039000006840F4803008600846806820F44030EF
:1003A00088600846806840F44030886008464068AD
:1003B00020F4807048600846C06820F44030C8606F
:1003C0007047000000100240000400480010004880
:1003D0005E49096821F007015C4A1160114609680D
:1003E00041F0020111605A49096841F48071584A8C
:1003F000116000BF5649096801F480610029F9D0F5
:1004000010205349496821F0F851514A5160114672
:10041000496841EA006151601146096821F0807124
:10042000116000BF4A49096801F00071B1F1007F15
:10043000F8D04749C96821F00301454AD160114607
:10044000C96841F00201D1601146C96821F4FE413A
:1004500041F4A051D1601146C96821F0700141F00A
:100460001001D1601146C96821F0C061D160114608
:10047000C96841F08071D1601146096841F080710E
:10048000116000BF3249096801F000710029F9D0FC
:100490002F49896821F003012D4A9160114689682E
:1004A00041F00301916000BF2949896801F00C0106
:1004B0000C29F9D12649896821F0F001244A91607C
:1004C0001146896821F4E06191601146896821F440
:1004D000605191601146096821F08061116000BF90
:1004E0001B49096801F08061B1F1806FF8D01849AB
:1004F000096921F4FE41164A11611146096941F466
:10050000C05111611146096941F400311161114670
:10051000096941F4803111611146096841F0806137
:10052000116000BF0A49096801F080610029F9D013
:1005300007498831096821F44001054AC2F888104A
:100540001146096E41F40011116670470020024007
:10055000001002401A48C06C40F008001849C864F6
:100560001848006820F47050164908600846006872
:1005700040F42050086013482030006840F0EE60DE
:100580001049203108600F480830006840F470506E
:100590000C4908310860081D006820F47050091DDE
:1005A00008600846006840F4A05008600548001D37
:1005B000006820F060000349091D086070470000D2
:1005C00000100240000C004800B50D48806D40F45A
:1005D00000300B4988650A488830006820F00C001C
:1005E000C1F888000846D0F8880040F00400C1F83F
:1005F0008800FFF7AFFF034800F010F800BD0000CF
:100600000010024000440040642242430723B2FB32
:10061000F3F100BF4A1E111EFCD17047016821F0A2
:1006200001010160016821F010210160016821F4DD
:1006300000410160416821F44051416042F28D0166
:10064000C160016841F00C0101601E4988421BD164
:10065000016841F020010160016821F04001016062
:10066000016821F010010160016821F08001016042
:10067000016821F480710160016821F0400101608E
:10068000016821F0010101600F49884209D1016A26
:1006900041F0400101620D49096841F0C0010B4A77
:1006A0001160016841F00101016000BFC16901F4FE
:1006B00000110029FAD000BFC16901F480010029AE
:1006C000FAD07047004C0040004400400838014018
:1006D000F0B504460E46174600250CE000BFE06961
:1006E00000F080000028FAD0705D20854FF49670ED
:1006F000FFF78AFF6D1CBD42F0D300BFE06900F038
:1007000040000028FAD0E06920F04000E061F0BD30
:100710002048C06C40F001001E49C8644FF0904072
:10072000006800204FF0904108600846006840F0E3
:10073000020008600846006A40F00100086215489F
:10074000806D40F00100134988654FF4FA500106AE
:1007500088620006806920F003008861084680698D
:1007600040F0680088610846006840F0800008603A
:100770000846006A40F001000862C820C8620420F0
:1007800048630007406940F00100486101200860AB
:1007900070470000001002404FF08040006900F0F8
:1007A00002007047FFF714FEFFF7BEFDFFF70CFFD6
:1007B000FFF7AEFF142206A10B48FFF789FF0B4895
:1007C00000684FF08041486301E0FFF7E5FFFCE778
:1007D0000D0A57656C636F6D6520746F2050726FE2
:1007E0006A360D0A000000000044004000000020AE
:1007F0004FF04070E1EE100A704700001C0800083E
:100800000000002018000000C4010008340800089F
:100810001800002060060000E0010008040000004D
:10082000070000000A0000000D000000100000009A
:0408300015000000AF
:040000050800018965
:00000001FF
