:020000040800F2
:10000000B8160020310200086D0200086F020008D7
:100010007102000873020008750200080000000069
:10002000000000000000000000000000770200084F
:1000300079020008000000007B0200087D02000831
:100040007F0200087F0200087F0200087F0200088C
:100050007F0200087F0200087F0200087F0200087C
:100060007F0200087F0200087F0200087F0200086C
:100070007F0200087F0200087F0200087F0200085C
:100080007F0200087F0200087F0200087F0200084C
:100090007F0200087F0200087F0200087F0200083C
:1000A0007F0200087F0200087F0200087F0200082C
:1000B0007F0200087F0200087F0200087F0200081C
:1000C0007F0200087F0200087F0200087F0200080C
:1000D0007F0200087F0200087F0200087F020008FC
:1000E0007F0200087F0200087F0200087F020008EC
:1000F0007F0200087F0200087F0200087F020008DC
:100100007F0200087F0200087F0200087F020008CB
:100110007F0200087F0200087F0200087F020008BB
:100120007F0200087F0200087F0200087F020008AB
:100130007F0200087F0200087F0200087F0200089B
:100140007F0200087F0200087F0200087F0200088B
:100150007F0200087F0200087F0200087F0200087B
:100160007F0200087F0200087F0200087F0200086B
:100170007F0200087F0200087F02000800000000E4
:100180007F0200087F02000800F002F800F041F84A
:100190000AA090E8000C82448344AAF10107DA45E2
:1001A00001D100F036F8AFF2090EBAE80F0013F0F3
:1001B000010F18BFFB1A43F001031847700D000030
:1001C000900D0000103A24BF78C878C1FAD85207C1
:1001D00024BF30C830C144BF04680C6070470000C1
:1001E0000023002400250026103A28BF78C1FBD840
:1001F000520728BF30C148BF0B607047642900F028
:10020000A380002070471FB500F08AFE1FBD10B507
:1002100010BD00F06EF91146FFF7F5FF00F070FD1C
:1002200000F08CF903B4FFF7F2FF03BC00F094F97F
:1002300016481749174B99423CBF50F8042B41F818
:10024000042BF8D314494FF000028B4238BF43F817
:10025000042BFAD3DFF84400016841F47001016017
:10026000BFF34F8FBFF36F8F0D480047FEE7FEE7E8
:10027000FEE7FEE7FEE7FEE7FEE7FEE7FEE7FEE756
:1002800008480949094A0A4B704700004C0F00080A
:100290000000002098000020B816002088ED00E043
:1002A00089010008B8100020B8160020B8120020FC
:1002B000B81200200FB41CB5084B06AA7B4469464F
:1002C0000090059800F0FDF804460020694600F013
:1002D0000BF920461CBC5DF814FB0000290200004D
:1002E0002DE9F0410E460446002020622046E168D8
:1002F000884730B3252805D0D4E901219047206AEA
:10030000401CF2E7E168204600278847050018D026
:10031000A5F14100192802D820354FF40067324674
:10032000294620462760FFF769FF40B1012804D025
:10033000F61D26F007060836D8E7361DD6E728460C
:10034000DAE7206ABDE8F0812DE9F0410646002495
:1003500010687529314616A510D0AFF3008000282B
:1003600002DA404213A507E031688A0701D512A5D9
:1003700002E0490704D511A5012401E0AFF3008094
:1003800000210A2206F1240709E0B0FBF2FCB0FBD1
:10039000F2F302FB1C00303078541846491C002848
:1003A000F3D123462A463046BDE8F04100F02AB892
:1003B000000000002D0000002B00000020000000C5
:1003C00010B5431C02E010F8011B71B18107FAD18E
:1003D0004FF0013202C88C1A8C4314EAC211F9D0D2
:1003E000C01A0A0603D0C01E10BDC01A10BD0A04F0
:1003F00001D0801E10BD0902FCD0401E10BD704708
:10040000704770472DE9F0470D46994692460446DD
:1004100000F124080168880604D5E06921F0100184
:10042000216000E00120A84201DD471B00E0002719
:10043000A1697A1902EB0900081AA0612078C006A8
:1004400002D42046AFF30080002608E0D4E9012161
:100450001AF806009047206A401C761C20624E4520
:10046000F4DB2078C0060AD52046AFF3008006E012
:10047000D4E9012130209047206A401C2062381EB8
:10048000A7F10107F4DC07E0D4E9012118F8050021
:100490009047206A401C2062281EA5F10105F3DC6C
:1004A0002046AFF300802078000602D50220BDE888
:1004B000F0870120FBE7000001694A1C026108780F
:1004C000704700B58FB0CDE9013100210591054994
:1004D0007944CDE9031011466846FFF701FF0FB0DC
:1004E00000BD0000E5FFFFFF0A6802F8010B0A608B
:1004F0007047754600F02CF8AE4605006946534635
:1005000020F00700854618B020B5FFF7B9FEBDE81A
:1005100020404FF000064FF000074FF000084FF06A
:10052000000B21F00701AC46ACE8C009ACE8C009FB
:10053000ACE8C009ACE8C0098D46704710B5044668
:10054000AFF300802046BDE81040FFF76BBE00000F
:10055000004870475810002001491820ABBEFEE744
:10056000260002007047000070B51648FFF728FF0C
:1005700005462A461349144800F0D0FA124800F004
:10058000C3FA04464E2C01D06E2C06D10E220FA1C8
:100590000D4800F0C3FA002070BD592C01D0792C11
:1005A00007D114220DA1084800F0B8FA00F07AF83B
:1005B000F2E716220EA1044800F0B0FAFFF7D4FFCC
:1005C000EAE700000000002000440040457869741C
:1005D00074696E670D0A0D0A00000000526572759D
:1005E0006E6E696E6720504F53540D0A0D0A00005D
:1005F000496E76616C696420526573706F6E7365C5
:100600000D0A0D0A000000002348C06C40F01200E3
:100610002149C8646FF0300020490860084600682E
:1006200040F0100008601D480830006820F03000DD
:100630001A49083108600846006840F03000086038
:10064000081F006820F00400091F086013480C30E0
:10065000006820F0300011490C3108606FF4403020
:100660000F4908600846006840F48030086008467A
:10067000806820F4403088600846806840F440304C
:1006800088600846406820F4807048600846C0686A
:1006900020F44030C8607047001002400004004859
:1006A0000010004810B5002400F02DFC00F034FCD0
:1006B000044626E000F0E6FAA0B100F02DFC001B95
:1006C0001049884206D812220FA1144800F026FAD9
:1006D000012010BD112212A1104800F01FFAFFF7EF
:1006E00043FFF6E700F018FC001B0649884207D9D3
:1006F00011220BA1094800F011FAFFF735FFE8E7D6
:1007000000BFD7E7A0860100504F5354207061739B
:10071000736564210D0A0D0A0000000000440040CA
:10072000504F5354206661696C6564210D0A0D0AAF
:10073000000000005E49096821F007015C4A116071
:100740001146096841F0020111605A49096841F4F3
:100750008071584A116000BF5649096801F48061F0
:100760000029F9D010205349496821F0F851514A25
:1007700051601146496841EA0061516011460968BB
:1007800021F08071116000BF4A49096801F00071D1
:10079000B1F1007FF8D04749C96821F00301454A0B
:1007A000D1601146C96841F00201D1601146C968A3
:1007B00021F4FE4141F4A051D1601146C96821F0F5
:1007C000700141F01001D1601146C96821F0C0618B
:1007D000D1601146C96841F08071D1601146096845
:1007E00041F08071116000BF3249096801F0007169
:1007F0000029F9D02F49896821F003012D4A916021
:100800001146896841F00301916000BF2949896858
:1008100001F00C010C29F9D12649896821F0F00179
:10082000244A91601146896821F4E0619160114683
:10083000896821F4605191601146096821F0806156
:10084000116000BF1B49096801F08061B1F1806F40
:10085000F8D01849096921F4FE41164A1161114680
:10086000096941F4C05111611146096941F400312F
:1008700011611146096941F480311161114609681D
:1008800041F08061116000BF0A49096801F0806190
:100890000029F9D007498831096821F44001054A47
:1008A000C2F888101146096E41F4001111667047B4
:1008B00000200240001002401A48C06C40F00800BE
:1008C0001849C8641848006820F470501649086038
:1008D0000846006840F42050086013482030006843
:1008E00040F0EE601049203108600F480830006881
:1008F00040F470500C4908310860081D006820F46D
:100900007050091D08600846006840F4A050086057
:100910000548001D006820F060000349091D0860BB
:100920007047000000100240000C004800B50D4860
:10093000806D40F400300B4988650A4888300068B3
:1009400020F00C00C1F888000846D0F8880040F07C
:100950000400C1F88800FFF7AFFF034800F07AF801
:1009600000BD000000100240004400402DE9F047A7
:100970004FF47A764FF00008214800F0A1FA1522D2
:1009800020A1254800F0CAF8152224A1224800F031
:10099000C5F800242FE00027194850F824508CB9DE
:1009A0003246294600F0DAF807463B462A4620A19F
:1009B0002248FFF77FFC81464A462049164800F04E
:1009C000ADF817E0601E0E4951F82000A84211D082
:1009D000324629460A4800F0C1F807463B462A46F7
:1009E00013A11648FFF766FC81464A4613490A4898
:1009F00000F094F8641CB442CDDBBDE8F087000041
:100A0000B80000204E756D626572207C7C205461B8
:100A10006C6C790D0A0D0A00004400403D3D3D3DDF
:100A20003D3D3D3D3D3D3D3D3D3D3D0D0A0D0A00F9
:100A30002564207C7C2025640D0A0000980000209D
:100A4000642242430723B2FBF3F100BF4A1E111E8A
:100A5000FCD17047016821F001010160016821F0BB
:100A600010210160016821F400410160416821F416
:100A70004051416042F28D01C160016841F00C01BA
:100A800001601E4988421BD1016841F020010160CC
:100A9000016821F040010160016821F0100101604E
:100AA000016821F080010160016821F4807101601A
:100AB000016821F040010160016821F0010101603D
:100AC0000F49884209D1016A41F0400101620D4994
:100AD000096841F0C0010B4A1160016841F0010151
:100AE000016000BFC16901F400110029FAD000BF04
:100AF000C16901F480010029FAD07047004C004020
:100B00000044004008380140014600BFC86900F0B9
:100B100020000028FAD0888CC0B27047F0B5044697
:100B20000E46174600250CE000BFE06900F080008B
:100B30000028FAD0705D20854FF49670FFF780FF93
:100B40006D1CBD42F0D300BFE06900F040000028FA
:100B5000FAD0E06920F04000E061F0BD2DE9F841F5
:100B600080460E461446621E3346002140460094DD
:100B700000F011F80546681C10B92846BDE8F88158
:100B8000621E334629464046009400F081F807462D
:100B9000781B401CF2E72DE9F84305460F469046C6
:100BA0001E46DDF82090B84527DB07EB080000EB78
:100BB000D0714C1024B1601E55F82000B04206DA06
:100BC00055F82400B04202D12046BDE8F88355F81C
:100BD0002400B04208DA33464246611C2846CDF86C
:100BE0000090FFF7D8FFF0E7621E334639462846EB
:100BF000CDF80090FFF7CFFFE7E74FF0FF30E4E7D5
:100C000010B50B48C06C40F001000949C8644FF0B2
:100C10009040006820F003004FF0904108600846C3
:100C2000006840F00200086000F004F810BD000009
:100C3000001002404FF09040006A40F001004FF079
:100C4000904108620E48806D40F001000C498865B3
:100C50005020810688628006406940F001004861AA
:100C60000846006A002008620846806940F00100DA
:100C700088610846006A40F0010008627047000081
:100C8000001002404FF08040006900F00200704701
:100C90002DE9F84305460F4690461E46DDF82090A4
:100CA000B8452ADB07EB080000EBD0714C10A9F126
:100CB0000100A04204D0601C55F82000B04206DDBF
:100CC00055F82400B04202D12046BDE8F88355F81B
:100CD0002400B04208DD621E334639462846CDF86E
:100CE0000090FFF7D5FFF0E733464246611C2846E7
:100CF000CDF80090FFF7CCFFE7E74FF0FF30E4E7D7
:100D000070B5FFF717FDFFF77FFCFFF70FFEFFF74A
:100D100077FFFFF7C7FC0546012D0CD109E000F075
:100D20005DF8FFF723FE00F009F80446012C00D01F
:100D300000E0F4E700BF002070BD000070B515486A
:100D4000FFF73EFB05462A4612491348FFF7E6FE29
:100D50001148FFF7D9FE04464E2C01D06E2C06D167
:100D60000E220EA10C48FFF7D9FE002070BD592CB1
:100D700001D0792C06D117220CA10748FFF7CEFE2F
:100D80000120F3E716220FA10348FFF7C7FEFFF784
:100D9000D5FFEBE77C0000200044004045786974F3
:100DA00074696E670D0A0D0A0000000052657275C5
:100DB0006E6E696E672050726F6772616D0D0A0DFD
:100DC0000A000000496E76616C6964205265737098
:100DD0006F6E73650D0A0D0A000000002DE9F041E9
:100DE000002500262148FFF7EBFA07463A461F493F
:100DF0001F48FFF793FE1E48FFF786FE04464E2C61
:100E000001D06E2C05D11B221AA11948FFF786FECE
:100E100010E0592C01D0792C05D115221CA11448C1
:100E2000FFF77CFE06E016221EA11148FFF776FEB2
:100E3000FFF7D4FF002514E000F065F800F06CF82F
:100E400006460BE0FFF71EFF40B100F065F8801B7F
:100E50001A4941F8250000F05AF800E0F2E700BF17
:100E60006D1CB5F57A7FE7DBBDE8F0813900002025
:100E70000044004052756E6E696E67207769746831
:100E80002064656661756C74730D0A0D0A000000BC
:100E90004368616E67696E6720426F756E64730D9B
:100EA0000A0D0A00496E76616C69642052657370A0
:100EB0006F6E73650D0A0D0A00000000B800002077
:100EC00030B50146002219E0002011E051F8205011
:100ED000441C51F82440A54209DD51F82030441C3F
:100EE00051F8244041F82040441C41F82430401C73
:100EF000C2F57A74641E8442E8DC521C40F2E73486
:100F0000A242E1DB30BD012081070860704700206C
:100F10004FF08041086070474FF08040406B704751
:100F20004FF04070E1EE100A704700004C0F0008CF
:100F30000000002098000000C4010008E40F000831
:100F40009800002020160000E0010008504F535484
:100F5000206661696C6564212050756C7365206E34
:100F60006F74207365656E20696E203130306D734B
:100F70002E20526572756E3F202859206F72204EC8
:100F8000293A0D0A005573696E67206465666175BC
:100F90006C7420626F756E6473212028393530209F
:100FA0006D6963726F20262031303530206D6963A2
:100FB000726F29204368616E67653F202859206F52
:100FC00072204E293A0D0A00526572756E3F202834
:100FD00059206F72204E293A0D0A0000B603000016
:040FE0001A040000EF
:040000050800018965
:00000001FF
